{
  "contractName": "SimpleStorage",
  "abi": [
    {
      "constant": false,
      "inputs": [
        {
          "name": "x",
          "type": "uint256"
        }
      ],
      "name": "set",
      "outputs": [],
      "payable": false,
      "stateMutability": "nonpayable",
      "type": "function"
    },
    {
      "constant": true,
      "inputs": [],
      "name": "get",
      "outputs": [
        {
          "name": "",
          "type": "uint256"
        }
      ],
      "payable": false,
      "stateMutability": "view",
      "type": "function"
    }
  ],
  "bytecode": "0x6060604052341561000f57600080fd5b60bb8061001d6000396000f30060606040526004361060485763ffffffff7c010000000000000000000000000000000000000000000000000000000060003504166360fe47b18114604d5780636d4ce63c146062575b600080fd5b3415605757600080fd5b60606004356084565b005b3415606c57600080fd5b60726089565b60405190815260200160405180910390f35b600055565b600054905600a165627a7a72305820e4a5567438174b721f8788c6224481e07300c1bc9ddacab6bcd3c59c81fbbaf40029",
  "source": "\npragma solidity ^0.4.18;\n\ncontract SimpleStorage {\n  uint storedData;\n\n  function set(uint x) public {\n    storedData = x;\n  }\n\n  function get() public view returns (uint) {\n    return storedData;\n  }\n}",
  "sourcePath": "/Users/raymondyeh/Desktop/truffle-next/contracts/SimpleStorage.sol",
  "compiler": {
    "name": "solc",
    "version": "0.4.19+commit.c4cbbb05.Emscripten.clang"
  },
  "schemaVersion": "1.0.1",
  "updatedAt": "2018-03-01T10:47:50.551Z"
}